S0140000465953343234305F4C6162322E73726563B4
S11300000C94A2000C94AE000C94AE000C94AE00C0
S11300100C94AE000C94AE000C94AE000C94AE00A4
S11300200C94AE000C94AE000C94AE000C94AE0094
S11300300C94AE000C94AE000C94AE000C94AE0084
S11300400C94AE000C94AE000C94AE000C94AE0074
S11300500C94AE000C94AE000C94AE000C94AE0064
S11300600C94AE000C94AE000C94AE000C94AE0054
S11300700C94AE000C94AE000C94AE000C94AE0044
S11300800C94AE000C94AE000C94AE000C94AE0034
S11300900C94AE000C94AE000C94AE000C94AE0024
S11300A00C94AE000C94AE000C94AE000C94AE0014
S11300B00C94AE000C94AE000C94AE000C94AE0004
S11300C00C94AE000C94AE000C94AE000C94AE00F4
S11300D00C94AE000C94AE000C94AE000C94AE00E4
S11300E00C94AE000C94AE000C94AE000C94AE00D4
S11300F00C94AE000C94AE000C94AE000C94AE00C4
S11301000C94AE000C94AE000C94AE000C94AE00B3
S11301100C94AE000C94AE000C94AE000C94AE00A3
S11301200C94AE000C94AE000C94AE000C94AE0093
S11301300C94AE000C94AE000C94AE000C94AE0083
S11301400C94AE0011241FBECFEFCDBFDFE3DEBFA2
S113015000E00CBF0E94BB000C94BE000C94000095
S1130160E0E8F6E0808180628083E4E8F6E0808164
S11301708062808308950E94B000FFCFF894FFCF7F
S9030000FC
